{
  "_format": "hh-sol-artifact-1",
  "contractName": "TaskContract",
  "sourceName": "contracts/TaskContract.sol",
  "abi": [
    {
      "anonymous": false,
      "inputs": [
        {
          "indexed": false,
          "internalType": "address",
          "name": "recipient",
          "type": "address"
        },
        {
          "indexed": false,
          "internalType": "uint256",
          "name": "taskId",
          "type": "uint256"
        }
      ],
      "name": "AddTask",
      "type": "event"
    },
    {
      "anonymous": false,
      "inputs": [
        {
          "indexed": false,
          "internalType": "uint256",
          "name": "taskId",
          "type": "uint256"
        },
        {
          "indexed": false,
          "internalType": "bool",
          "name": "isDeleted",
          "type": "bool"
        }
      ],
      "name": "DeleteTask",
      "type": "event"
    },
    {
      "inputs": [
        {
          "internalType": "string",
          "name": "taskText",
          "type": "string"
        },
        {
          "internalType": "bool",
          "name": "isDeleted",
          "type": "bool"
        }
      ],
      "name": "addTask",
      "outputs": [],
      "stateMutability": "nonpayable",
      "type": "function"
    },
    {
      "inputs": [
        {
          "internalType": "uint256",
          "name": "taskId",
          "type": "uint256"
        },
        {
          "internalType": "bool",
          "name": "isDeleted",
          "type": "bool"
        }
      ],
      "name": "deleteTask",
      "outputs": [],
      "stateMutability": "nonpayable",
      "type": "function"
    },
    {
      "inputs": [],
      "name": "getMyTasks",
      "outputs": [
        {
          "components": [
            {
              "internalType": "uint256",
              "name": "id",
              "type": "uint256"
            },
            {
              "internalType": "address",
              "name": "username",
              "type": "address"
            },
            {
              "internalType": "string",
              "name": "taskText",
              "type": "string"
            },
            {
              "internalType": "bool",
              "name": "isDeleted",
              "type": "bool"
            }
          ],
          "internalType": "struct TaskContract.Task[]",
          "name": "",
          "type": "tuple[]"
        }
      ],
      "stateMutability": "view",
      "type": "function"
    }
  ],
  "bytecode": "0x608060405234801561001057600080fd5b50610d89806100206000396000f3fe608060405234801561001057600080fd5b50600436106100415760003560e01c806320df4581146100465780636e13f81814610062578063aaba290714610080575b600080fd5b610060600480360381019061005b91906108cc565b61009c565b005b61006a610229565b6040516100779190610b3e565b60405180910390f35b61009a60048036038101906100959190610b8c565b610575565b005b600080805490509050600060405180608001604052808381526020013373ffffffffffffffffffffffffffffffffffffffff16815260200185815260200184151581525090806001815401808255809150506001900390600052602060002090600402016000909190919091506000820151816000015560208201518160010160006101000a81548173ffffffffffffffffffffffffffffffffffffffff021916908373ffffffffffffffffffffffffffffffffffffffff1602179055506040820151816002019080519060200190610176929190610657565b5060608201518160030160006101000a81548160ff0219169083151502179055505050336001600083815260200190815260200160002060006101000a81548173ffffffffffffffffffffffffffffffffffffffff021916908373ffffffffffffffffffffffffffffffffffffffff1602179055507f1f54e1ba1832d428fbd7e7792beaf62b1fc5a382c207ffd614209c1413e94fda338260405161021c929190610bea565b60405180910390a1505050565b60606000808054905067ffffffffffffffff81111561024b5761024a610769565b5b60405190808252806020026020018201604052801561028457816020015b6102716106dd565b8152602001906001900390816102695790505b5090506000805b6000805490508110156104bb573373ffffffffffffffffffffffffffffffffffffffff166001600083815260200190815260200160002060009054906101000a900473ffffffffffffffffffffffffffffffffffffffff1673ffffffffffffffffffffffffffffffffffffffff1614801561033c5750600015156000828154811061031957610318610c13565b5b906000526020600020906004020160030160009054906101000a900460ff161515145b156104a8576000818154811061035557610354610c13565b5b9060005260206000209060040201604051806080016040529081600082015481526020016001820160009054906101000a900473ffffffffffffffffffffffffffffffffffffffff1673ffffffffffffffffffffffffffffffffffffffff1673ffffffffffffffffffffffffffffffffffffffff1681526020016002820180546103de90610c71565b80601f016020809104026020016040519081016040528092919081815260200182805461040a90610c71565b80156104575780601f1061042c57610100808354040283529160200191610457565b820191906000526020600020905b81548152906001019060200180831161043a57829003601f168201915b505050505081526020016003820160009054906101000a900460ff16151515158152505083838151811061048e5761048d610c13565b5b602002602001018190525081806104a490610cd2565b9250505b80806104b390610cd2565b91505061028b565b5060008167ffffffffffffffff8111156104d8576104d7610769565b5b60405190808252806020026020018201604052801561051157816020015b6104fe6106dd565b8152602001906001900390816104f65790505b50905060005b8281101561056b5783818151811061053257610531610c13565b5b602002602001015182828151811061054d5761054c610c13565b5b6020026020010181905250808061056390610cd2565b915050610517565b5080935050505090565b3373ffffffffffffffffffffffffffffffffffffffff166001600084815260200190815260200160002060009054906101000a900473ffffffffffffffffffffffffffffffffffffffff1673ffffffffffffffffffffffffffffffffffffffff1614156106535780600083815481106105f1576105f0610c13565b5b906000526020600020906004020160030160006101000a81548160ff0219169083151502179055507ff88a35c3d2016c409a46570b994a17b408dbc83c14a03f521512d50b85386d06828260405161064a929190610d2a565b60405180910390a15b5050565b82805461066390610c71565b90600052602060002090601f01602090048101928261068557600085556106cc565b82601f1061069e57805160ff19168380011785556106cc565b828001600101855582156106cc579182015b828111156106cb5782518255916020019190600101906106b0565b5b5090506106d9919061071d565b5090565b604051806080016040528060008152602001600073ffffffffffffffffffffffffffffffffffffffff168152602001606081526020016000151581525090565b5b8082111561073657600081600090555060010161071e565b5090565b6000604051905090565b600080fd5b600080fd5b600080fd5b600080fd5b6000601f19601f8301169050919050565b7f4e487b7100000000000000000000000000000000000000000000000000000000600052604160045260246000fd5b6107a182610758565b810181811067ffffffffffffffff821117156107c0576107bf610769565b5b80604052505050565b60006107d361073a565b90506107df8282610798565b919050565b600067ffffffffffffffff8211156107ff576107fe610769565b5b61080882610758565b9050602081019050919050565b82818337600083830152505050565b6000610837610832846107e4565b6107c9565b90508281526020810184848401111561085357610852610753565b5b61085e848285610815565b509392505050565b600082601f83011261087b5761087a61074e565b5b813561088b848260208601610824565b91505092915050565b60008115159050919050565b6108a981610894565b81146108b457600080fd5b50565b6000813590506108c6816108a0565b92915050565b600080604083850312156108e3576108e2610744565b5b600083013567ffffffffffffffff81111561090157610900610749565b5b61090d85828601610866565b925050602061091e858286016108b7565b9150509250929050565b600081519050919050565b600082825260208201905092915050565b6000819050602082019050919050565b6000819050919050565b61096781610954565b82525050565b600073ffffffffffffffffffffffffffffffffffffffff82169050919050565b60006109988261096d565b9050919050565b6109a88161098d565b82525050565b600081519050919050565b600082825260208201905092915050565b60005b838110156109e85780820151818401526020810190506109cd565b838111156109f7576000848401525b50505050565b6000610a08826109ae565b610a1281856109b9565b9350610a228185602086016109ca565b610a2b81610758565b840191505092915050565b610a3f81610894565b82525050565b6000608083016000830151610a5d600086018261095e565b506020830151610a70602086018261099f565b5060408301518482036040860152610a8882826109fd565b9150506060830151610a9d6060860182610a36565b508091505092915050565b6000610ab48383610a45565b905092915050565b6000602082019050919050565b6000610ad482610928565b610ade8185610933565b935083602082028501610af085610944565b8060005b85811015610b2c5784840389528151610b0d8582610aa8565b9450610b1883610abc565b925060208a01995050600181019050610af4565b50829750879550505050505092915050565b60006020820190508181036000830152610b588184610ac9565b905092915050565b610b6981610954565b8114610b7457600080fd5b50565b600081359050610b8681610b60565b92915050565b60008060408385031215610ba357610ba2610744565b5b6000610bb185828601610b77565b9250506020610bc2858286016108b7565b9150509250929050565b610bd58161098d565b82525050565b610be481610954565b82525050565b6000604082019050610bff6000830185610bcc565b610c0c6020830184610bdb565b9392505050565b7f4e487b7100000000000000000000000000000000000000000000000000000000600052603260045260246000fd5b7f4e487b7100000000000000000000000000000000000000000000000000000000600052602260045260246000fd5b60006002820490506001821680610c8957607f821691505b60208210811415610c9d57610c9c610c42565b5b50919050565b7f4e487b7100000000000000000000000000000000000000000000000000000000600052601160045260246000fd5b6000610cdd82610954565b91507fffffffffffffffffffffffffffffffffffffffffffffffffffffffffffffffff821415610d1057610d0f610ca3565b5b600182019050919050565b610d2481610894565b82525050565b6000604082019050610d3f6000830185610bdb565b610d4c6020830184610d1b565b939250505056fea2646970667358221220352b4c82f45ab8aa8730a64470d881e10fa99bd92847b1aa3697111f1659ebab64736f6c63430008090033",
  "linkReferences": {},
  "deployedLinkReferences": {}
}